13Z01 CLPR58876885        1    H   E   N20220426202204262022042620220426202206032022051220220512202207050080070050985008115    14077773514077773501JEREMY PITRE GONZALEZ         80070050985M2014062602040204      000000000                          99443                                               F902    F913                                                                                                                                                1720504228          1629294939          2084P0804X                                  1336194448          YMB11N 000011081 000000000 000000000 000000000 000000000 000000000 000000000 000000000 000000000 000000000 000000000 000000000000                        19000101                                  CARN  000000000 000000000N   0000000001P    0                                20220603                                                                                                                                          *

13G01 CLPR58876889        1    H   E   N20220426202204262022042620220426202206032022051220220512202207050080070083340080834    58171381458171381401NORMA B PONS ANAYA            80070083340F1965030501200120      000000000                          90832                                               F332    F411                                                                                                                                                1437298478          1043984560          103TC0700X                                  1336194448          YMB11N 000007119 000000000 000000000 000000000 000000000 000000000 000000000 000000000 000000000 000000000 000000000 000000000000                        19000101                                  CARN  000000000 000000000N   0000000001P    0                                20220603                                                                                                                                          *
13G01 CLPR58876889        2    H   E   N20220426202204262022042620220426202206032022051220220512202207050080070083340080834    58171381458171381401NORMA B PONS ANAYA            80070083340F1965030501200120      000000000                          96127                                               F332    F411                                                                                                                                                1437298478          1043984560          103TC0700X                                  1336194448          YMB11N 000000509 000000000 000000000 000000000 000000000 000000000 000000000 000000000 000000000 000000000 000000000 000000000000                        19000101                                  CARN  000000000 000000000N   0000000001P    0                                20220603                                                                                                                                          *
13G01 CLPR58876889        3    H   E   N20220426202204262022042620220426202206032022051220220512202207050080070083340080834    58171381458171381401NORMA B PONS ANAYA            80070083340F1965030501200120      000000000                          G8431                                               F332    F411                                                                                                                                                1437298478          1043984560          103TC0700X                                  1336194448          YMB11N 000000000 000000000 000000000 000000000 000000000 000000000 000000000 000000000 000000000 000000000 000000000 000000000000                        19000101                                  CARN  000000000 000000000N   0000000001P    0                                20220603                                                                                                                                          *

13Z01 CLPR58876891        1    H   E   N20220426202204262022042620220426202206032022051220220512202207050080070086056008215    04466697204466697201WILLIAM OLIVERAS              80070086056M1975032202560256      000000000                          90832                                               F203    F1220   F1020                                                                                                                                       1346874518          1114145943          103T00000X                                  1336194448          YMB11N 000007119 000000000 000000000 000000000 000000000 000000000 000000000 000000000 000000000 000000000 000000000 000000000000                        19000101                                  CARN  000000000 000000000N   0000000001P    0                                20220603                                                                                                                                          *

13Z01 CLPR58876892        1    H   E   N20220426202204262022042620220426202206032022051220220512202207050080070086056008215    04466697204466697201WILLIAM OLIVERAS              80070086056M1975032202560256      000000000                          99443                                               F203    F1220   F1020                                                                                                                                       1346874518          1356446959          208D00000X                                  1336194448          YMB11N 000011081 000000000 000000000 000000000 000000000 000000000 000000000 000000000 000000000 000000000 000000000 000000000000                        19000101                                  CARN  000000000 000000000N   0000000001P    0                                20220603                                                                                                                                          *

13B01 CLPR58876894        1    H   E   N20220425202204252022042520220425202206032022051220220512202207050080070094357004350    58235135458235135401LYDIA E GALINDEZ CABRERA      80070094357F1960082502920292      000000000                          90791                                               F332    F411    Z639                                                                                                                                        1801227343          1609276609          1041C0700X                                  1336194448          YMB11N 000014566 000000000 000000000 000000000 000000000 000000000 000000000 000000000 000000000 000000000 000000000 000000000000                        19000101                                  CARN  000000000 000000000N   0000000001P    0                                20220603                                                                                                                                          *
13B01 CLPR58876894        2    H   E   N20220425202204252022042520220425202206032022051220220512202207050080070094357004350    58235135458235135401LYDIA E GALINDEZ CABRERA      80070094357F1960082502920292      000000000                          96127                                               F332    F411    Z639                                                                                                                                        1801227343          1609276609          1041C0700X                                  1336194448          YMB11N 000000509 000000000 000000000 000000000 000000000 000000000 000000000 000000000 000000000 000000000 000000000 000000000000                        19000101                                  CARN  000000000 000000000N   0000000001P    0                                20220603                                                                                                                                          *
13B01 CLPR58876894        3    H   E   N20220425202204252022042520220425202206032022051220220512202207050080070094357004350    58235135458235135401LYDIA E GALINDEZ CABRERA      80070094357F1960082502920292      000000000                          3085F                                               F332    F411    Z639                                                                                                                                        1801227343          1609276609          1041C0700X                                  1336194448          YMB11N 000000001 000000000 000000000 000000000 000000000 000000000 000000000 000000000 000000000 000000000 000000000 000000000000                        19000101                                  CARN  000000000 000000000N   0000000001P    0                                20220603                                                                                                                                          *
13B01 CLPR58876894        4    H   E   N20220425202204252022042520220425202206032022051220220512202207050080070094357004350    58235135458235135401LYDIA E GALINDEZ CABRERA      80070094357F1960082502920292      000000000                          G8431                                               F332    F411    Z639                                                                                                                                        1801227343          1609276609          1041C0700X                                  1336194448          YMB11N 000000000 000000000 000000000 000000000 000000000 000000000 000000000 000000000 000000000 000000000 000000000 000000000000                        19000101                                  CARN  000000000 000000000N   0000000001P    0                                20220603                                                                                                                                          *

13B01 CLPR58877071        1    U111E   N20220420202204202022042020220420202206032022051220220513202207050080011997685004309    59732630759732630701CHAYANNE MORALES BONILLA      80011997685M1991070800440044      000000000                                                     988                      F12288  R440    R45851  F1024   F419    E039                                                                                                                1831185016          1750346151          283Q00000X                                  1750346151          YMB21N 000000001 000000000 000000000 000000000 000000000 000000000 000000000 000000000 000000000 000000000 000000000 000000000000                        19000101                                01CARN  000000000 000000000N   0000000001O21089                                20220603                                                                                                                                          *
13B01 CLPR58877071        2    U111E   N20220426202204262022042020220425202206032022051220220513202207050080011997685004309    59732630759732630701CHAYANNE MORALES BONILLA      80011997685M1991070800440044      000000000                                                     124                      F12288  R440    R45851  F1024   F419    E039                                                                                                                1831185016          1750346151          283Q00000X                                  1750346151          YMB51N 000262500 000000000 000000000 000000000 000000000 000000000 000000000 000000000 000000000 000000000 000000000 000000000000                        19000101                                01CARN  000000000 000000000N   0000000005I21089                                20220603                                                                                                                                          *
13B01 CLPR58877071        3    U111D   N20220426202204262022042620220426202206032022051220220513202207050080011997685004309    59732630759732630701CHAYANNE MORALES BONILLA      80011997685M1991070800440044      000000000                                                     124                      F12288  R440    R45851  F1024   F419    E039                                                                                                                1831185016          1750346151          283Q00000X                                  1750346151          YMB51N 000052500 000000000 000000000 000000000 000000000 000000000 000000000 000000000 000000000 000000000 000000000 000000000000                        19000101                                01CARN  000000000 000000000N   0000000001I21089                                20220603082963                                                                                                                                    *

13J01 CLPR58877072        1    U111E   N20220421202204212022042120220421202206032022051220220513202207050080015849319006514    58335503558335503501MARIA M VELEZ TORRES          80015849319F1963072802660266      000000000                                                     988                      F250    Z9114   E039    G4700   F911    Z1159                                                                                                               1780176768          1750346151          283Q00000X                                  1750346151          YMB21N 000000001 000000000 000000000 000000000 000000000 000000000 000000000 000000000 000000000 000000000 000000000 000000000000                        19000101                                01CARN  000000000 000000000N   0000000001O18199                                20220603                                                                                                                                          *
13J01 CLPR58877072        2    U111E   N20220421202204252022042120220425202206032022051220220513202207050080015849319006514    58335503558335503501MARIA M VELEZ TORRES          80015849319F1963072802660266      000000000                                                     124                      F250    Z9114   E039    G4700   F911    Z1159                                                                                                               1780176768          1750346151          283Q00000X                                  1750346151          YMB21N 000210000 000000000 000000000 000000000 000000000 000000000 000000000 000000000 000000000 000000000 000000000 000000000000                        19000101                                01CARN  000000000 000000000N   0000000004I18199                                20220603                                                                                                                                          *

13S01 CLPR58877095        1    U111E   N20220428202204282022042520220425202206032022051220220513202207050080008795640070403    59807801959807801901DAMARYS CRUZ PEREZ            80008795640F1986100202280228      000000000                                                     912                      F322                                                                                                                                                        1902872914          1841295557          283Q00000X                                  1841295557          YMB52N 000015000 000000000 000000000 000000000 000000000 000000000 000000000 000000000 000000000 000000000 000000000 000000000000                        19000101                                01CARN  000000000 000000000N   0000000001O07189                                20220603                                                                                                                                          *
13S01 CLPR58877095        2    U111E   N20220428202204282022042620220426202206032022051220220513202207050080008795640070403    59807801959807801901DAMARYS CRUZ PEREZ            80008795640F1986100202280228      000000000                                                     912                      F322                                                                                                                                                        1902872914          1841295557          283Q00000X                                  1841295557          YMB52N 000015000 000000000 000000000 000000000 000000000 000000000 000000000 000000000 000000000 000000000 000000000 000000000000                        19000101                                01CARN  000000000 000000000N   0000000001O07189                                20220603                                                                                                                                          *
13S01 CLPR58877095        3    U111E   N20220428202204282022042720220427202206032022051220220513202207050080008795640070403    59807801959807801901DAMARYS CRUZ PEREZ            80008795640F1986100202280228      000000000                                                     912                      F322                                                                                                                                                        1902872914          1841295557          283Q00000X                                  1841295557          YMB52N 000015000 000000000 000000000 000000000 000000000 000000000 000000000 000000000 000000000 000000000 000000000 000000000000                        19000101                                01CARN  000000000 000000000N   0000000001O07189                                20220603                                                                                                                                          *
13S01 CLPR58877095        4    U111E   N20220428202204282022042820220428202206032022051220220513202207050080008795640070403    59807801959807801901DAMARYS CRUZ PEREZ            80008795640F1986100202280228      000000000                                                     912                      F322                                                                                                                                                        1902872914          1841295557          283Q00000X                                  1841295557          YMB52N 000015000 000000000 000000000 000000000 000000000 000000000 000000000 000000000 000000000 000000000 000000000 000000000000                        19000101                                01CARN  000000000 000000000N   0000000001O07189                                20220603                                                                                                                                          *
13S01 CLPR58877095        5    U111D   N20220425202204252022042520220425202206032022051220220513202207050080008795640070403    59807801959807801901DAMARYS CRUZ PEREZ            80008795640F1986100202280228      000000000                                                     982                      F322                                                                                                                                                        1902872914          1841295557          283Q00000X                                  1841295557          YMB22N 000000001 000000000 000000000 000000000 000000000 000000000 000000000 000000000 000000000 000000000 000000000 000000000000                        19000101                                01CARN  000000000 000000000N   0000000001O07189                                20220603082914                                                                                                                                    *
